:020000040801F1
:10200000DFF8ACD072B626F0D7FD2A482A49016025
:102010002A482B492B4B2C4C2C4A42F8040B42F8F3
:10202000041B42F8043B146000202949204A41F86F
:10203000040B9142FFF4FBAF2649274A274B26F0B9
:10204000D5FD2749274A284B26F0D0FD274A284BA3
:1020500026F0D5FD2749284A284B26F0C7FD284AF7
:10206000284B26F0CCFD2849284A294B26F0BEFDF6
:10207000284A294B26F0C3FD2849294A294B26F036
:10208000B5FD2949294A2A4B26F0B0FD294A2A4B99
:1020900026F0B5FD29492A4A2A4B26F0A7FD2A4AEF
:1020A0002A4B26F0ACFD26F075FD25F095FC704717
:1020B00000800104000009A2110000001500201496
:1020C000000020042300001000000000001018E0B1
:1020D000007001046CF707080000001030150010B4
:1020E00094220808E0140200E0140200E014020048
:1020F000601702009C0C080830150010282B0010F7
:10210000282B0010C81402109C230808008000042B
:10211000809B0004809B0004495E0104942208080F
:1021200000002014F00020148C230808F80020146C
:10213000F8002014F8002014F80020148C2308085C
:1021400000012004100120041001200410012004CB
:1021500081F0004102E000BF83F0004330B54FEA58
:1021600041044FEA430594EA050F08BF90EA020FC5
:102170001FBF54EA000C55EA020C7FEA645C7FEA58
:10218000655C00F0E2804FEA5454D4EB5555B8BF7B
:102190006D420CDD2C4480EA020281EA030382EAEC
:1021A000000083EA010180EA020281EA0303362D7E
:1021B00088BF30BD11F0004F4FEA01314FF4801C51
:1021C0004CEA113102D0404261EB410113F0004F63
:1021D0004FEA03334CEA133302D0524263EB43031A
:1021E00094EA050F00F0A780A4F10104D5F1200EB8
:1021F0000DDB02FA0EFC22FA05F2801841F1000113
:1022000003FA0EF2801843FA05F359410EE0A5F1E6
:1022100020050EF1200E012A03FA0EFC28BF4CF017
:10222000020C43FA05F3C01851EBE37101F00045CD
:1022300007D54FF0000EDCF1000C7EEB00006EEBDA
:102240000101B1F5801F1BD3B1F5001F0CD3490864
:102250005FEA30004FEA3C0C04F101044FEA4452BB
:1022600012F5800F80F09A80BCF1004F08BF5FEA42
:10227000500C50F1000041EB045141EA050130BD22
:102280005FEA4C0C404141EB010111F4801FA4F1C5
:102290000104E9D191F0000F04BF01460020B1FA1A
:1022A00081F308BF2033A3F10B03B3F120020CDA52
:1022B0000C3208DD02F1140CC2F10C0201FA0CF030
:1022C00021FA02F10CE002F11402D8BFC2F1200C95
:1022D00001FA02F120FA0CFCDCBF41EA0C0190404B
:1022E000E41AA2BF01EB0451294330BD6FEA040494
:1022F0001F3C1CDA0C340EDC04F11404C4F120027F
:1023000020FA04F001FA02F340EA030021FA04F390
:1023100045EA030130BDC4F10C04C4F1200220FAE7
:1023200002F001FA04F340EA0300294630BD21FA25
:1023300004F0294630BD94F0000F83F4801306BFEB
:1023400081F480110134013D4EE77FEA645C18BFDF
:102350007FEA655C29D094EA050F08BF90EA020F76
:1023600005D054EA000C04BF1946104630BD91EA6E
:10237000030F1EBF0021002030BD5FEA545C05D171
:102380004000494128BF41F0004130BD14F58004B0
:102390003CBF01F5801130BD01F0004545F0FE4124
:1023A00041F470014FF0000030BD7FEA645C1ABF59
:1023B000194610467FEA655C1CBF0B46024650EA90
:1023C000013406BF52EA033591EA030F41F40021BC
:1023D00030BD00BF90F0000F04BF0021704730B542
:1023E0004FF4806404F132044FF000054FF0000117
:1023F00050E700BF90F0000F04BF0021704730B5D8
:102400004FF4806404F1320410F0004548BF4042AC
:102410004FF000013EE700BF42004FEAE2014FEA01
:1024200031014FEA02701FBF12F07F4393F07F4FDC
:1024300081F06051704792F0000F14BF93F07F4F0E
:10244000704730B54FF4607401F0004521F0004151
:1024500020E700BF50EA010208BF704730B54FF0D7
:1024600000050AE050EA010208BF704730B511F0DC
:10247000004502D5404261EB41014FF4806404F114
:1024800032045FEA915C3FF4DCAE4FF003025FEA96
:10249000DC0C18BF03325FEADC0C18BF033202EB1E
:1024A000DC02C2F1200300FA03FC20FA02F001FA78
:1024B00003FE40EA0E0021FA02F11444C1E600BF17
:1024C00070B54FF0FF0C4CF4E06C1CEA11541DBFCA
:1024D0001CEA135594EA0C0F95EA0C0F00F0DEF895
:1024E0002C4481EA030621EA4C5123EA4C5350EA7A
:1024F000013518BF52EA033541F4801143F48013CB
:1025000038D0A0FB02CE4FF00005E1FB02E506F05B
:102510000042E0FB03E54FF00006E1FB03569CF0B0
:10252000000F18BF4EF0010EA4F1FF04B6F5007FB6
:1025300064F5407404D25FEA4E0E6D4146EB060628
:1025400042EAC62141EA55514FEAC52040EA5E50B1
:102550004FEACE2EB4F1FD0C88BFBCF5E06F1ED85B
:10256000BEF1004F08BF5FEA500E50F1000041EB92
:10257000045170BD06F0004646EA010140EA02003F
:1025800081EA0301B4EB5C04C2BFD4EB0C0541EA61
:10259000045170BD41F480114FF0000E013C00F376
:1025A000AB8014F1360FDEBF002001F0004170BD9A
:1025B000C4F10004203C35DA0C341BDC04F11404B3
:1025C000C4F1200500FA05F320FA04F001FA05F23F
:1025D00040EA020001F0004221F0004110EBD3700C
:1025E00021FA04F642EB06015EEA430E08BF20EA38
:1025F000D37070BDC4F10C04C4F1200500FA04F3DB
:1026000020FA05F001FA04F240EA020001F000416C
:1026100010EBD37041F100015EEA430E08BF20EADF
:10262000D37070BDC4F1200500FA05F24EEA020E27
:1026300020FA04F301FA05F243EA020321FA04F056
:1026400001F0004121FA04F220EA020000EBD3700D
:102650005EEA430E08BF20EAD37070BD94F0000F0D
:102660000FD101F00046400041EB010111F4801F41
:1026700008BF013CF7D041EA060195F0000F18BFF2
:10268000704703F00046520043EB030313F4801F2E
:1026900008BF013DF7D043EA0603704794EA0C0FE8
:1026A0000CEA135518BF95EA0C0F0CD050EA4106FE
:1026B00018BF52EA4306D1D181EA030101F000417B
:1026C0004FF0000070BD50EA410606BF10461946A3
:1026D00052EA430619D094EA0C0F02D150EA0136AF
:1026E00013D195EA0C0F05D152EA03361CBF1046F0
:1026F00019460AD181EA030101F0004141F0FE418F
:1027000041F470014FF0000070BD41F0FE4141F412
:10271000780170BD70B54FF0FF0C4CF4E06C1CEA12
:1027200011541DBF1CEA135594EA0C0F95EA0C0FC7
:1027300000F0A7F8A4EB050481EA030E52EA033582
:102740004FEA013100F088804FEA03334FF08055A3
:1027500045EA131343EA12634FEA022245EA1115D0
:1027600045EA10654FEA00260EF000419D4208BF81
:10277000964244F1FD0404F5407402D25B084FEA2E
:102780003202B61A65EB03055B084FEA32024FF4DA
:1027900080104FF4002CB6EB020E75EB030E22BF37
:1027A000B61A754640EA0C005B084FEA3202B6EBF7
:1027B000020E75EB030E22BFB61A754640EA5C00A6
:1027C0005B084FEA3202B6EB020E75EB030E22BF36
:1027D000B61A754640EA9C005B084FEA3202B6EB37
:1027E000020E75EB030E22BFB61A754640EADC00F6
:1027F00055EA060E18D04FEA051545EA16754FEA58
:1028000006164FEAC30343EA52734FEAC2025FEA75
:102810001C1CC0D111F4801F0BD141EA00014FF004
:1028200000004FF0004CB6E711F4801F04BF0143D5
:102830000020B4F1FD0C88BFBCF5E06F3FF6AFAEF1
:10284000B5EB030C04BFB6EB020C5FEA500C50F181
:10285000000041EB045170BD0EF0004E4EEA113104
:1028600014EB5C04C2BFD4EB0C0541EA045170BD0B
:1028700041F480114FF0000E013C90E645EA060E4F
:102880008DE60CEA135594EA0C0F08BF95EA0C0F7D
:102890003FF43BAF94EA0C0F0AD150EA01347FF4C5
:1028A00034AF95EA0C0F7FF425AF104619462CE79C
:1028B00095EA0C0F06D152EA03353FF4FDAE1046FF
:1028C000194622E750EA410618BF52EA43067FF450
:1028D000C5AE50EA41047FF40DAF52EA43057FF4E0
:1028E000EBAE12E74FF0FF3C06E000BF4FF0010CEB
:1028F00002E000BF4FF0010C4DF804CD4FEA410C4F
:102900007FEA6C5C4FEA430C18BF7FEA6C5C1BD01B
:1029100001B050EA410C0CBF52EA430C91EA030F9C
:1029200002BF90EA020F0020704710F1000F91EAF9
:10293000030F58BF994208BF90422CBFD8176FEAC7
:10294000E37040F0010070474FEA410C7FEA6C5C95
:1029500002D150EA013C07D14FEA430C7FEA6C5C9C
:10296000D6D152EA033CD3D05DF8040B704700BFC8
:102970008446104662468C461946634600E000BF16
:1029800001B5FFF7B7FF002848BF10F1000F01BDE8
:102990004DF808EDFFF7F4FF0CBF012000205DF8B3
:1029A00008FB00BF4DF808EDFFF7EAFF34BF012038
:1029B00000205DF808FB00BF4DF808EDFFF7E0FFD1
:1029C00094BF012000205DF808FB00BF4DF808ED22
:1029D000FFF7CEFF94BF012000205DF808FB00BF89
:1029E0004DF808EDFFF7C4FF34BF012000205DF86B
:1029F00008FB00BF4FEA410212F5001215D211D5B3
:102A00006FF47873B3EB625212D94FEAC12343F0EB
:102A1000004343EA505311F0004F23FA02F018BF6D
:102A2000404270474FF00000704750EA013005D136
:102A300011F0004008BF6FF0004070474FF00000F9
:102A4000704700BF4A0011D212F5001211D20DD505
:102A50006FF47873B3EB62520ED44FEAC12343F0A4
:102A6000004343EA505323FA02F070474FF000004E
:102A7000704750EA013002D14FF0FF3070474FF0FD
:102A8000000070474BB942B9002908BF002802D0A6
:102A90004FF0FF31084600F03BB882B0EC462DE91C
:102AA000005000F01DF8DDF804E002B00CBC7047E7
:102AB0002DE97043069E14461D468046894600F067
:102AC00029F804FB01F300FB0533A4FB00451D447A
:102AD000B8EB040469EB0505C6E90045BDE8708361
:102AE0002DE97043069E1446804689461D4600F037
:102AF0005DF900FB05F504FB0153A0FB04451D44F3
:102B0000B8EB040469EB0505C6E90045BDE8708330
:102B1000704700BF00292DE9F00FC0F29F8000240C
:102B2000002BC0F29680154606460F46002B3ED17C
:102B30008A4257D9B2FA82F34BB1C3F1200201FAAB
:102B400003F720FA02F29D40174300FA03F6290C1E
:102B5000B7FBF1F2330C01FB127CA8B243EA0C473D
:102B600000FB02F3BB4209D97F1902F1FF3C80F060
:102B70000181BB4240F2FE80023A2F44FF1AB7FBAC
:102B8000F1F3B6B201FB137146EA014100FB03F019
:102B9000884208D9491903F1FF3780F0ED80884257
:102BA00040F2EA80023B43EA0242002303E08B4208
:102BB0000AD900231A461046194614B1404261EB67
:102BC0004101BDE8F00F7047B3FA83F8B8F1000F88
:102BD00040F084808B4202D3824200F2DE800023E8
:102BE0000122E8E712B90123B3FBF2F5B5FA85F249
:102BF000002A39D17F1B280C1FFA85FC0123B7FB63
:102C0000F0F1320C00FB117742EA07470CFB01F2AE
:102C1000BA4207D97F1901F1FF3802D2BA4200F255
:102C2000C1804146BF1AB7FBF0F2B6B200FB12708A
:102C300046EA00400CFB02FC844507D9401902F12A
:102C4000FF3702D2844500F2AB803A4642EA0142A5
:102C5000B1E7E443524263EB430364E7404261EB74
:102C600041014FF0FF345BE79540C2F1200327FAA2
:102C700003F1280C26FA03F39740B1FBF0F81F4349
:102C80003B0C00FB18111FFA85FC43EA01410CFBC9
:102C900008F38B4206FA02F608D9491908F1FF3207
:102CA00079D28B4277D9A8F102082944C91AB1FB1D
:102CB000F0F3BFB200FB131147EA01470CFB03F22C
:102CC000BA4207D97F1903F1FF3160D2BA425ED907
:102CD000023B2F44BF1A43EA084390E7C8F12002A1
:102CE00003FA08FC25FA02F343EA0C0C4FEA1C49EC
:102CF00021FA02F301FA08F720FA02F2B3FBF9F124
:102D0000174309FB11333A0C1FFA8CFB42EA0343C9
:102D10000BFB01FA9A4505FA08F008D913EB0C03EE
:102D200001F1FF3235D29A4533D902396344CAEBF7
:102D30000303B3FBF9F209FB1233BFB247EA0347BF
:102D40000BFB02F9B94508D917EB0C0702F1FF3369
:102D50001BD2B94519D9023A674442EA0145A5FB9D
:102D60000001C9EB07078F424FF000030AD305D0DB
:102D70002A4620E7624601E73B4614E706FA08F6D2
:102D80008642F5D26A1E002315E71A46E5E70B4690
:102D9000A0E71146CBE7904688E7434642460AE75C
:102DA000023A53E702392F443CE700BF2DE9F00F08
:102DB000144605460E46002B43D18A4253D9B2FA37
:102DC00082F757B1C7F1200620FA06F601FA07F399
:102DD00002FA07F41E4300FA07F5210CB6FBF1F2E4
:102DE0002B0C01FB1267A0B243EA074600FB02F37B
:102DF000B34209D9361902F1FF3780F0F680B342A9
:102E000040F2F380023A2644F61AB6FBF1F3ADB273
:102E100001FB136145EA014100FB03F0884208D938
:102E2000091903F1FF3680F0E280884240F2DF802A
:102E3000023B43EA0242002310461946BDE8F00F68
:102E400070478B424AD8B3FA83F6002E4DD18B429D
:102E500002D3824200F2D680002301221046194696
:102E6000BDE8F00F704712B90124B4FBF2F4B4FAD4
:102E700084F2002A7CD1091B260CA7B20123B1FBE6
:102E8000F6F02A0C06FB101142EA014107FB00F2A2
:102E90008A4207D9091900F1FF3C02D28A4200F2A6
:102EA000C3806046891AB1FBF6F2ADB206FB12117F
:102EB00045EA014507FB02F7AF4208D92C1902F198
:102EC000FF3180F09680A74240F29380023A42EAB6
:102ED000004210461946BDE8F00F704700231A461D
:102EE00010461946BDE8F00F7047C6F1200522FADA
:102EF00005F4B3401C434FEA144821FA05F301FAE4
:102F000006F720FA05F5B3FBF8FC2F4308FB1C334A
:102F10003D0C1FFA84FA45EA03430AFB0CF9994574
:102F200002FA06FB04D91B190CF1FF326DD394464B
:102F3000C9EB0303B3FBF8F508FB1533BFB247EA4F
:102F400003470AFB05F8B84504D93F1905F1FF33DB
:102F500061D31D4645EA0C4CACFB0B23C8EB0707BD
:102F60009F424FF0000549D345D062462B4663E7A8
:102F70009440C2F1200321FA03FC260C20FA03F34B
:102F800001FA02F5BCFBF6F843EA05010B0C06FB5F
:102F900018CCA7B243EA0C4C07FB08F3634500FAD0
:102FA00002F509D91CEB040C08F1FF323AD2634553
:102FB00038D9A8F10208A444C3EB0C0CBCFBF6F30F
:102FC00089B206FB13CC41EA0C4107FB03F28A42AB
:102FD00007D9091903F1FF3022D28A4220D9023BD6
:102FE0002144891A43EA084349E73A460CE7334645
:102FF0001FE70A466BE7B0409042B6D20CF1FF32B1
:10300000002319E73346324616E799458FD9ACF1CC
:10301000020C23448CE7B8459BD9023D274499E72D
:103020000346DEE79046C7E7023821443AE700BF8F
:1030300010F8012B11F8013B012A28BF9A42F7D062
:10304000D01A70474FEA4102B2F1E04324BFB3F512
:10305000001CDCF1FE5C0DD901F0004C4FEAC0020F
:103060004CEA5070B2F1004F40EB830008BF20F0F3
:103070000100704711F0804F21D113F13872BCBFAD
:1030800001F00040704741F480114FEA5252C2F102
:103090001802C2F1200C10FA0CF320FA02F018BF4B
:1030A00040F001004FEAC1234FEAD32303FA0CFC9E
:1030B00040EA0C0023FA02F34FEA4303CCE77FEA2D
:1030C000625307D150EA01331EBF4FF0FE4040F477
:1030D0004000704701F0004040F0FE4040F4000026
:1030E000704700BFF7B5264B1B5C022B05460F4609
:1030F00002D02448932111E0234B012153F8206092
:1031000000F080FD044617B1304600F0BBFE2046BB
:1031100001A902F08BF828B11A48A0211B4A1C4BC8
:103120003EF086FD019B4BB31A4B53F8356003EB21
:10313000C5035F6816B91348AA21EFE7204602F0DD
:1031400015F839460120B047204601F0CBFF204654
:1031500001A902F06BF810B10A48B421DEE70E4B6A
:103160001C2202FB0535019B6A69934206D3204667
:1031700001F0FCFF10B10348BA21CFE703B0F0BD66
:10318000592B0010E56B05080C6D05087B6C0508D4
:10319000A8E906082C2B00105C2B00102DE9F34148
:1031A000374B1E5CF6B2022E04460F4602D035485D
:1031B000D52112E0002100F025FD0546002F2ED07C
:1031C000314B1A5D42BB43F0D7F901A906462846A8
:1031D00002F03CF828B12B48E0212C4A2C4B3EF061
:1031E00027FD2C4B1C2202FB04335A68019B9A4298
:1031F0000ED1294B1A5D1F4652B1284B1D5D284642
:1032000004F0C8F910B1284604F09CF900233B559E
:10321000304643F081F930E000221A552DE0204B72
:1032200053F8347003EBC403D3F8048017B915487E
:10323000F721D2E701F09AFF41463046B8472846C9
:1032400001F050FF284601A902F000F818B10D481E
:1032500040F20111C1E70F4B1C2202FB0434A368AA
:103260006268D21A019B934207D3284601F07EFF81
:1032700018B1044840F20911AFE702B0BDE8F0818F
:10328000592B0010E56B0508532B0010D36B050874
:10329000A8E906085C2B0010B02B0010D06B0508C5
:1032A0002C2B00100B78487813B10021FFF71ABFC0
:1032B0001946FFF773BF0000114B70B553F820405B
:1032C0000546204600F0D6FD0646C0B9204601213D
:1032D00000F06EFD3146204600F06AFD094A52F8C2
:1032E000353002EBC505696833B90748074A084B12
:1032F00040F21F113EF09CFC4FF0FF30984770BD2C
:103300000C6D05082C2B0010E56B0508276C0508D3
:10331000A8E906080228F8B505460C4676D80B78C9
:103320000C2B0BD84B78032B08D88B78012B05D8A6
:10333000CB78022B8CBF0023012300E00023002B5D
:1033400064D043F019F933494B5D07461BB143F094
:10335000E3F8FD205BE0304A137810469BB92F4E0E
:1033600000229A552E4ECA549A552E4E9A552E4EDC
:1033700006EBC30ECEF8042046F833200133032BAE
:10338000EDD101230370294B227803F8252003EBAC
:10339000850362785A70A2789A70E278DA703846BB
:1033A00001234B5543F0B8F8214B585D42F0DCFF48
:1033B000064630B11F48204A204B4FF4FD713EF0C5
:1033C00037FC1F4B53F82550284600F05DFD22784E
:1033D0001C4B284653F8221000F04CFCE37861782F
:1033E000A278284600F0A2FC284600F0D1FC28462E
:1033F00000F0D4FC05201449324603F035FC0520CA
:103400001249324603F0A0FC304600E0FC2040B2F6
:10341000F8BD00BF592B0010282B0010502B0010B6
:10342000532B0010B02B00102C2B0010BC2B0010C5
:10343000086D0508E56B0508906C0508A8E9060805
:103440000C6D05086C6B05089D350108213B0108D2
:1034500002282DE9F843044600F28880454E43F0E7
:103460008BF8335D0546B1461BB943F055F8FE2095
:103470007DE0414B53F82480404600F01BFD335D56
:10348000022B52D10021204600F0BCFB012107464F
:10349000204600F0B7FB0646384601F067FE30B123
:1034A000284643F039F8354840F22D2109E03046EE
:1034B00001F05CFE48B1284643F02EF82F4840F258
:1034C00033212F4A2F4B3EF0B3FB384601F05CFE10
:1034D00030B1284643F020F8284840F23921F0E77F
:1034E000304601F051FE30B1284643F015F823482C
:1034F00040F23F21E5E7384601F072FD30B1284641
:1035000043F00AF81D4840F24521DAE7304601F061
:1035100067FD30B1284642F0FFFF184840F24B21CA
:10352000CFE7194B185700F03BFD404600F0ACFCCC
:10353000164B185D43F018F8064630B1284642F0A5
:10354000EBFF0E4840F25521BBE7114B09F8040090
:1035500043F8340003EBC40358600E4B18550E4B70
:103560001855284642F0D8FF304600E0FC2040B213
:10357000BDE8F883592B00100C6D0508E56B0508B4
:10358000596B0508A8E90608CB6C0508086D050805
:103590002C2B0010532B0010502B00102DE9F74F4F
:1035A00000252C46174F3B5DE0B213B3164E3A5D33
:1035B000DFF8609006EB05085FFA82FBD8F804306C
:1035C000AA5914F809A001920093FFF741FF07F8E8
:1035D00004B0019A009BAA5104F809A0C8F804306D
:1035E0000A4B185700F0ECFC094B003018BF0120C3
:1035F000E0540134032C05F10805D3D103B0BDE834
:10360000F08F00BF592B00102C2B0010CB6C05083D
:10361000562B0010502B001002282DE9F3410546CF
:103620000F46164644D8002942D0002A40D0234BEA
:103630001B5C022B3CD1224C42F09EFF635D804616
:103640002BB9204B585D03F076FF012363554046AC
:1036500042F062FF2846002100F0D4FA01A9054695
:1036600001F0F4FD18B118484FF42C7111E0019CE1
:10367000A64228BF2646044600E00134B4420CD0DE
:103680002846395D01F0B4FD0028F6D00E484FF40D
:103690002F710E4A0E4B3EF0CBFA019B9C4209D192
:1036A000284601F01FFD28B1074840F2C721F0E786
:1036B000002000E0204602B0BDE8F081592B001048
:1036C000B02B0010D06B0508E56B05089E6C050853
:1036D000A8E906080228F7B50D46144635D8002992
:1036E00033D0002A33D01B4A135C022B2DD1012189
:1036F00000F088FA01A9064601F098FD18B11648B5
:1037000040F2213112E0019B9C4234BF27461F4604
:10371000044600E00134BC420CD03046291901F0C7
:1037200075FD0028F6D00C4840F22D310B4A0C4BA9
:103730003EF07EFA019B9C4209D1304601F0D2FC5A
:1037400028B105484FF44E71F0E7002000E0204614
:1037500003B0F0BD592B0010E56B0508A06B050800
:10376000A8E9060802282DE9F74F04468946924643
:1037700000F2A480002900F0A18042F0FDFE524B2F
:103780001E5DF6B2012E05469B4603D042F0C4FEF4
:10379000FE2094E00021204600F034FA31468046B5
:1037A000204600F02FFA494B43F8349003EBC40352
:1037B000DFF83C91C3F804A009EB840A630051468A
:1037C00007464046019300F033FA404640495246CE
:1037D00001F04EFD019B30B1284642F09DFE3D4870
:1037E00040F2853112E0013309EB4309384649467E
:1037F00000F01EFA384636494A4601F039FD48B114
:10380000284642F089FE33484FF46371324A334B05
:103810003EF00EFADFF8DCA031491AF9040000F09E
:10382000EFFB014630B1284642F076FE294840F2CF
:103830009231EBE72B4B204653F8247000F0E2F96D
:1038400031468146204600F0DDF98046384600F0DA
:10385000A8FA254B38461E5500F0A6FA1AF90400BE
:1038600000F08EFB484601F03DFC18B1194840F2CB
:10387000523116E0404601F035FC18B1154840F2CF
:1038800057310EE0484601F03DFC18B111484FF4A5
:10389000577106E0404601F035FC20B10D4840F27A
:1038A0006131124AB3E7384600F0DEF902232846B8
:1038B0000BF8043042F030FE002000E0FC2040B263
:1038C00003B0BDE8F08F00BF592B00102C2B001067
:1038D000A5320108E56B0508B56B0508A8E90608DF
:1038E000FD3D01080C6D0508532B00105F6C0508A9
:1038F000442B0010CB6C0508022807B513D80C4ADE
:10390000135C022B0FD1012100F07CF901A901F019
:103910008DFC30B10748084A084B4FF472713EF0F5
:1039200087F9019800E0002003B05DF804FB00BFB8
:10393000592B0010E56B05083A6C0508A8E9060844
:10394000022810B504460CD8084B1B5C5BB1084B31
:1039500053F8200000F009FA064B02221A55002005
:1039600002E0FC2000E0FE2040B210BD592B001008
:103970000C6D0508502B001002282DE9F04104467B
:10398000884617461E4614D80D48005D98B10D486C
:103990000D4D50F8240000F0F1F90C4B01221A559E
:1039A00004EB4404281905F8048047708670002051
:1039B00002E0FC2000E0FE2040B2BDE8F08100BF44
:1039C000592B00100C6D0508B32B0010502B001064
:1039D0000228F7B505460C4600F28F800B68002BD5
:1039E00000F08B80CB68002B00F087804A68464B44
:1039F0009A4200F28280896899427ED891427CD8AE
:103A000022699A4279D86069984276D8A169994228
:103A100073D8904271D891426FD83C4B5E5DF6B23C
:103A2000012E6CD10021284600F0ECF83146074603
:103A3000284600F0E7F80646384601F025FA18B1A6
:103A4000334840F23F410BE02368009338466368F7
:103A50000193694601F01CFB30B12D4840F246410C
:103A60002C4A2D4B3EF0E4F83846A16801F09AFB51
:103A700018B1274840F24B41F2E7304601F004FA12
:103A800018B1234840F25141EAE7E3680093304619
:103A900023690193694601F0FBFA18B11C484FF401
:103AA0008B61DDE73046616901F07CFB18B1184895
:103AB00040F25D41D4E73046A16901F087FB06463C
:103AC00018B1134840F26241CAE742F055FD1C2389
:103AD000124A21685D435319515162685A60A268C5
:103AE0009A60A2699A61E268DA6022691A61626981
:103AF0005A6142F011FD304602E0FC2000E0FE2059
:103B000040B203B0F0BD00BFFFFF0100592B001011
:103B1000E56B0508166C0508A8E906085C2B001083
:103B20002DE9F84300252E462C462C4B1A5DE7B2B2
:103B300002F0FF0932B12A490022384631441A55B1
:103B4000FFF7E8FB274BE35C012B19D1DFF8B080CE
:103B5000254B18F80510F05800F002F9204B2348C7
:103B6000F35C90FBF3F0013042F046FC08EB0503F8
:103B700038465A7818F805109B78FFF7FDFE04E0E8
:103B8000022B02D13846FFF7DBFEB9F1020F0FD14D
:103B9000174B1C2101FB04313846FFF719FF154B69
:103BA00003EBC402384653F834105268FFF7DAFDCD
:103BB000114BE75C384603F0EDFC28B10F4BE35C9A
:103BC00013B1384603F0BEFC0134032C06F10406A1
:103BD00005F10305A9D1BDE8F88300BF592B0010FA
:103BE000BC2B0010502B00100C6D0508001BB700FB
:103BF0005C2B00102C2B0010D06B0508562B0010EE
:103C0000B32B001001280CD006D302280ED10029B6
:103C10000CBF0A200B20704700290CBF0E200F207C
:103C2000704700290CBF0C200D2070470F207047F3
:103C30000A38052817D8DFE800F012090E070B0331
:103C400001230B7000230DE0012302E0012307E0B4
:103C500000230B7006E000230B70012302E0002319
:103C60000B7002234B707047012380F8513080F8AD
:103C700050307047F0B5294D06460F460FCD8BB03A
:103C80006C460FC40FCD0FC495E8030000233364C6
:103C9000A3F58063B36584E8030001F067FE204B61
:103CA000204A00280CBF104618460A22390202FB9F
:103CB00000F4B0FBF1F3B4FBF1F1B1FBF2F502FB60
:103CC000151202B903B9013307FB03F1B0FBF1F29E
:103CD000B2F5807F394401D90133F7E703217163DD
:103CE00099B2B160911E4908013A42EA01227B4330
:103CF000B263B4FBF3F30A22B3FBF2F102FB11331C
:103D00000AAA02EB830353F8283CB365064B9F4293
:103D100084BF122373640BB0F0BD00BFA865050813
:103D200080BA8C01002D3101BFC62D00032910B5CA
:103D30009ABF0A4C615C0321012A08BF41F00401CB
:103D4000012B03D005D3022B05D002E041F008017E
:103D500001E041F02001017710BD00BFB06C050803
:103D6000836A9B06FCD5416070476FF0FF03836454
:103D7000012380F8203003234376704743F4807397
:103D800042EA012242628364032303767047000003
:103D9000014B4361704700BF010801010123C36467
:103DA0007047012303737047032343737047000078
:103DB000034B044A00290CBF114619464161704764
:103DC00001090100010900010369DA0711D403F0B8
:103DD0003F03062B06D00C2B0DD0022B0CBF052069
:103DE00000207047836A13F0100F0CBF01200320DE
:103DF000704700207047022070470000082838B53F
:103E000004D009280CBF0224002400E00124144B34
:103E100053F824502846FFF7D7FF052818D8DFE8C5
:103E200000F01D09030E1D1120460121BDE8384098
:103E3000FFF758B92046BDE83840FFF73DBA094BB7
:103E40006B6138BD20460121BDE83840FFF7A6B9B7
:103E50000548064A064BF2213DF0EAFE38BD00BF98
:103E60000C6D050801090100CE6C0508B46C05084D
:103E7000A8E90608836A13F00E0F14BF00206FF044
:103E800000007047036D70470023C3614362836085
:103E9000C360436183610362C362436383630364FA
:103EA000036343648364C364036543658365036696
:103EB000C3657047836A5B06FCD570470CB430B5A8
:103EC00085B008AB054653F8044B03930A460193AB
:103ED000009405482946032306F0D0FE05B0BDE84E
:103EE000304002B0704700BF301500100CB430B540
:103EF00085B008AB054653F8044B03930A4601937B
:103F0000009405482946022306F0B8FE05B0BDE836
:103F1000304002B0704700BF301500100CB430B50F
:103F200085B008AB054653F8044B03930A4601934A
:103F3000009405482946012306F0A0FE05B0BDE81F
:103F4000304002B0704700BF301500100A4A1368B5
:103F500011467BB9094A52F8230003F16042C000C0
:103F600002F561420133C0B2202B82F80003F1D187
:103F700001230B6000207047C82C00101C6D050841
:103F8000C0B21F2806D8012303FA00F0034B1860C3
:103F9000002000E0FD2040B2704700BF00E100E0DB
:103FA000C0B21F2807D8012303FA00F0034BC3F85F
:103FB0008000002000E0FD2040B2704700E100E0FA
:103FC000C0B21F2807D8012303FA00F0034BC3F83F
:103FD0000001002000E0FD2040B2704700E100E059
:103FE000C0B21F2807D8012303FA00F0034BC3F81F
:103FF0008001002000E0FD2040B2704700E100E0B9
:1040000070B5C6B21F2E04460D4613D891B142F0CA
:10401000B3FA012303FA06F6084BC3F88061084B94
:1040200043F8345003EBC4040025656042F074FA91
:10403000284600E0FE2040B270BD00BF00E100E075
:10404000C82B001010B5044642F096FA20600020FC
:1040500010BD08B542F060FA002008BDD1F8AC30C0
:10406000022010B55870082098700420D8703C20A9
:10407000187180205871012260201A70D871D1F80F
:10408000B0002B23C373D1F8B0004373D1F8B00054
:104090002F248473D1F8B0000524C472D1F8B00085
:1040A0000273D1F8B0205374162381F8C030B1F8F0
:1040B000C230B3F5C15F07D1D1F8B03075229A7024
:1040C000D1F8B0307A22DA70B1F8C230B3F5B15F0E
:1040D00007D1D1F8B03075229A70D1F8B0307A2279
:1040E000DA70024BC1F8D430002010BD990F0010D7
:1040F000D1F8AC30022210B501205A703C24802245
:104100009A70DA7018705A711C71D1F8B0309F2211
:104110009A72D1F8B0203523D373D1F8B0205373FD
:10412000D1F8B0300522DA72D1F8B0301873D1F876
:10413000B03075229A70D1F8B0307A22DA70162336
:1041400081F8C030024BC1F8D430002010BD00BF50
:104150004903001038B5304B0360304B4360304B9F
:104160008360304BC360304B0361304B4361304B55
:104170008361304BC361304B0362304B03630025D6
:104180002F4B836345628562C56245630C4600F030
:104190003BF9B0F1807F8CBF0423032384F8C53042
:1041A000D4F8B0305D74D4F8B030AF229A72D4F83D
:1041B000B0309F225A72D4F8B03002221A70D4F86C
:1041C000B03020229A71D4F8B0305222DA71D4F88B
:1041D000B030D8221A72D4F8B030B0229A70D4F825
:1041E000B0303022DA70D4F8B03006225A70D4F8E9
:1041F000B030B9229A74D4F8B030AB22DA74D4F863
:10420000B02005231374A4F8B850E560A5602574A8
:1042100084F8C030002038BDE50A00109D08001069
:10422000D1100010EF0D0010650C00104D030010B0
:104230000D0A0010FD080010A50700105303001020
:104240009D42010808B591F8C120EF2A0DD0F82A47
:1042500011D0C22A13D1D1F8C82042F00402C1F80B
:10426000C820BDE80840FFF7F9BED1F8C82042F0E9
:104270000202C1F8C820BDE80840FFF739BF42F08C
:10428000C3F80348034A044B40F61B013DF0D0FC41
:104290004D6E0508FA6E0508A8E9060810B50C462B
:1042A00021B9D0F8D4309847204610BD01290BD150
:1042B00090F8C120C22A10D143691B68B3F5802F42
:1042C00014BF0020C22010BD42F09EF80448054AE9
:1042D000054B40F635113DF0ABFC002010BD00BF92
:1042E0004D6E0508876E0508A8E9060870B50C46EE
:1042F000064678B371B3D1F8B0505DB3D1F8AC5085
:1043000045B34A60A1F8BA30FFF724FFD4F8B030C3
:10431000AF2204F1C1059A722046294642F0DCF82A
:1043200094F8C130013BDBB2FD2B08D9D4F8B03092
:104330009F229A722046294642F0CEF804E0284691
:1043400000F00CF80028F1D030462146BDE870405E
:10435000FFF778BF6FF0770070BD000070B50022E6
:104360000C4B03F1100413441444597C00238B427A
:1043700004DAE518AE78C55CAE4202D08B4202D1B9
:1043800006E00133F3E70A32322AE9D1002070BD9A
:10439000012070BD206F050873B5154CB4F90000FD
:1043A000002822DA6A4600204FF0006142F0ACF8A3
:1043B000002210490A23534301F1100018440B4412
:1043C000597C00238B4205DAC518AE783DF81350AE
:1043D000AE4203D08B4203D1228004E00133F1E7E7
:1043E0000132052AE5D1B4F9000002B070BD00BF6A
:1043F00048150010206F0508024B0A2202FB00300E
:1044000010307047206F05084FF48000704700F0AF
:1044100097B870B520F0784000239AB2551C01EB94
:10442000C50466683EB154F8084CA04207D351F861
:104430003540A04203D201EBC201486870BD013390
:10444000EBE70000014B1968FFF7E3BFCC2D00102C
:10445000002350F8082B22B150F8041C01FB023352
:10446000F7E7184670472DE9F8430027064614463B
:10447000994600EB01083D4646451FD23046494665
:10448000FFF7C7FFEA002FB92244012344F83500A3
:10449000536010E054F83510884204EB020302D157
:1044A0005A68013206E00135092D0AD00832A318F6
:1044B000A05001225A6006440137DDE70020BDE824
:1044C000F8830620BDE8F88370B506460D4614460D
:1044D0001046002140223DF01AFC044B304629468C
:1044E00022461B68BDE87040FFF7BDBFCC2D001011
:1044F00008B590B9FFF750FF0A4A0028106008DAA3
:1045000041F082FF0848094A094B40F299313DF0D9
:104510008FFBFFF771FF074B1860074B074A1A60C4
:1045200008BD00BFF02D0010796F0508B56F0508B4
:10453000A8E90608A82F0010D02D0010D86F050894
:104540002DE9F047DFF8D490DFF8D4A0284C294FAC
:10455000DFF8D0800020FFF7CBFFD9F80030DAF881
:1045600000102548882606FB0131244B4A881A6032
:10457000234B01F108021A60483140223DF0A3FBB1
:10458000204BC4F8AC30204BC4F8B030FB43DAF811
:1045900000102360D9F800304FF0006206FB0136AE
:1045A0000025A4F8C6506260404621467368FFF7B4
:1045B0009DFE783008D141F027FF1448144A154B6E
:1045C00040F227413DF034FB0B48134EFFF740FF0C
:1045D0003A46014630602846FFF776FF6761C6F825
:1045E0000480B46086F880502846BDE8F08700BF9C
:1045F000C02E0010802E00108C2D0010A42F001053
:10460000CC2D0010782E0010D42D0010796F0508E5
:10461000646F0508A8E90608F42D0010D02D0010DD
:10462000F02D0010502D001010B541F02DFF0D4A57
:104630001368012B05D10024146041F03DFF204692
:104640000EE01BB941F038FFFE2009E041F034FFD5
:1046500041F0DAFE0448054A054B64213DF0E8FAD2
:1046600040B210BD4C150010AE72050880720508EE
:10467000A8E9060808B541F007FF094B1A682AB9EE
:1046800001221A60BDE8084041F016BF41F014FF56
:1046900041F0BAFE0348044A044B70213DF0C8FAC9
:1046A0004C150010AE720508A2720508A8E90608AC
:1046B00008B5FFF7B9FF0028FBD108BD38B590F861
:1046C00080300446BBB9FFF7F3FF6368A0681B683E
:1046D00004F10C0198470546FFF7CCFF002D07DADF
:1046E00041F092FE0448054A054BBF213DF0A0FA77
:1046F000012384F8803038BDAE720508E5720508E4
:10470000A8E90608F8B51D4603689942174615D270
:104710004A199A4212D883685E6890F880300E4435
:104720000BB9FFF7CBFFFFF7C3FF31462A463846E8
:104730003DF0C9FAFFF79EFF0020F8BD0220F8BD4A
:104740002DE9F04F99460368994285B004468846A2
:10475000924676D201EB09029A4274D890F88030E2
:104760000BB9FFF7ABFFFFF7A3FF00254D4560D264
:104770006368A268D3F808B05668019205EB080395
:1047800019461046009341F0AFFE019A4644014697
:104790002E4410460022D84716F0010F0AEB0507F9
:1047A000009B04D1C5EB090BBBF1010F0CD1636871
:1047B000A068D3F810C031463A460123E0470646C8
:1047C000002837D10135D1E7A26801921946104679
:1047D00041F08AFE019A0146104641F0FDFD434238
:1047E000304418400BEB0603834288BFC6EB000B36
:1047F0002BF0010BBBF1020F63680FD1FA070DD547
:104800003A788DF80E207A788DF80F201F69A0680D
:1048100031460DF10E025B46B84706E0D3F810C0F2
:10482000A06831463A465B46E047064610B95D440B
:104830009CE70026FFF71EFF002E0CBF002005207E
:1048400002E0022000E0032005B0BDE8F08F70B563
:1048500090F8803004460D4621F07F460BB9FFF7F3
:104860002DFFE3689E4214D2FFF722FF6368A06821
:104870009B680022314698476368A068DB68294638
:1048800098470446FFF7F6FE002C14BF06200020D0
:1048900070BD022070BD000010B5074C94F90030C7
:1048A000053306D1FFF7B3FD0448FFF707FF0023E8
:1048B0002370002010BD00BF309A0004F42D0010BA
:1048C000024B0146986841F00FBE00BFF42D001066
:1048D000022808B510D0032810D0052810D00628CB
:1048E00010D002300ED041F08FFD0848084A094B25
:1048F00040F22E213DF09CF9FD2004E0FC2002E076
:10490000FA2000E0F92040B208BD00BFAE720508F1
:104910008B720508A8E9060808B5FFF7BDFF00205F
:1049200008BD000010B529B9C0F30B03FA247BB110
:10493000FD201CE0012905D1C0F30E03002BF7D1A7
:10494000FB2405E00229F3D183B2002BF0D1FC2433
:10495000FFF7B6FF431C0146EAD0064841EA04616E
:10496000FFF775FF18B1BDE81040FFF7B1BF40B2C7
:1049700010BD00BFF42D001038B505460C46134697
:10498000054829462246FFF7BDFE18B1BDE838406C
:10499000FFF79EBF38BD00BFF42D001070B50B4669
:1049A000044616460F481A4621463346FFF7C8FE0E
:1049B00018B1BDE87040FFF78BBF204600F0C8FE7D
:1049C00068B124F01F0506F12003234423F01F03E0
:1049D0009D4204D8284641F0E7FC2035F3E700204B
:1049E00070BD00BFF42D001038B5054610B1FF2092
:1049F00040B238BD00F03EFAFF2804460ED041F028
:104A0000BBFD0A4B1A78012A0CBFFD2501226DB2AD
:104A100018BF1A7041F080FD033501D1FD20E7E792
:104A2000204600F05BF90020E2E700BFC42F001031
:104A300037B500230193044618B1FF2040B203B0FC
:104A400030BD41F099FD0546204600F0FBF801908D
:104A5000019BDB0702D50D48792105E0019C14F08C
:104A6000020405D009488421094A0A4B3DF0E0F8C8
:104A7000284641F051FD084B20461C7000F0FFF91C
:104A8000FF2814BF0020FD20D8E700BF48730508A9
:104A900079730508A8E90608C42F00102DE9F34131
:104AA0001F4600230D4616460093019318B9384B54
:104AB0007A1E9A4204D9FF2040B202B0BDE8F081CC
:104AC000A90702D03348B32103E0B20705D031482B
:104AD000B921314A314B3DF0ABF8284600F038FEA1
:104AE00010B12C48C021F4E7304600F031FE0446F6
:104AF00010B12848C621ECE741F03EFD8046204633
:104B000000F0A0F80190019BDB0702D52148D221DB
:104B1000DFE7019C14F0020402D01E48DD21D8E733
:104B2000404641F0F9FC3846694600F05FF8009BCA
:104B3000B3F5803F074629D22046032100F0AAF8AA
:104B40002046394600F09EF82046009900F0BEF855
:104B500032462046294600F0ADF82146204600F0B6
:104B6000A1F8204602F0E7FC204600F081F820463C
:104B700000F068F80190019C14F0010401D00020BD
:104B8000F6E7204602F0DEFC204695E7FD2093E79D
:104B9000FBFF03004873050831730508A8E9060800
:104BA00013B50446019218B1FF2040B202B010BD07
:104BB00001AA00F04FF82046F7E737B500230C466E
:104BC0000193054618B1FF2040B203B030BD00F09C
:104BD00039F80190019B13F0010303D001232370E6
:104BE0002846F1E723701846EEE700000A4B98428A
:104BF00003D14FF6FF730B6003E0820703D18008F7
:104C0000086002207047C30703D4400808600120F1
:104C10007047086000207047FCFF0300084951F806
:104C20002020002353619361D361136051F8202049
:104C30004FF40041536011629360D36093627047F8
:104C400058150010024B53F820301868704700BF09
:104C50005415001010B5054B53F8304024B943F8F3
:104C6000301003EBC000426010BD00BFC82F001021
:104C7000034B53F820304FF400429A61704700BF55
:104C800058150010024B53F820305975704700BF7B
:104C900058150010024B53F820301975704700BFAB
:104CA00058150010024B53F82030D975704700BFDB
:104CB0005815001010B5044B53F82040226053F8EB
:104CC0002030596010BD00BF58150010024B53F83A
:104CD00020301961704700BF5815001008B5FFF764
:104CE0009DFF00200349FFF78BF90020BDE8084035
:104CF000FFF746B9F94C010873B5454B00241B6812
:104D000001941B680193019B9B071AD5414D2B68A9
:104D10004FF400421A62404A136851686BB1204652
:104D200098473E4B01221A602B689A6922F4004290
:104D30009A61204602F006FC03E039484FF4866190
:104D400005E0384C002317E0354840F24E41364A22
:104D5000364B3CF06DFF364A364952F8232051F865
:104D6000231012680192019A0131012000FA01F129
:104D7000114207D12368013323602368294D042B96
:104D8000E9D917E02C4E56F823204FF400419161E9
:104D90002A4951F8332001EBC3035968002AD3D0C4
:104DA000002090472B6856F823301A6922F40042FD
:104DB0001A61DFE700232B602368092B26D8204ADD
:104DC000204952F8232051F8231012680192019AC9
:104DD0000131012000FA01F1114213D01A4A52F8B0
:104DE00023204FF400411161184951F8332001EBA1
:104DF000C303596812B10020904703E0084840F20D
:104E00006641A4E7236801332360D5E702B070BD93
:104E10005415001058150010C82F0010D02F001086
:104E2000AE7305084C300010B2740508A8E90608F6
:104E3000C015001084150010D41500102430001087
:104E40005C150010E815001010160010D42F00108B
:104E500008B5002041F088FA002814BFFF20002088
:104E600008BD08B5002041F07FFB002814BFFF20DB
:104E7000002008BD08B9FFF7EBBFFF20704708B955
:104E8000FFF7EFBFFF20704770B5841F092C054660
:104E90000FD9FE200BE02B689E7102225A714849FF
:104EA0000020FFF7ADF80020FFF76AF8002040B2BD
:104EB00070BD41F061FB434B5A5D012A0DD1424860
:104EC000424A40F259212B46FFF728F84048414A10
:104ED000414B40F259213CF0ABFE01265E553F4D5F
:104EE00041F01AFB55F824200023536055F8242084
:104EF000136055F82420936055F82420D36055F8AA
:104F00002420D36155F8242013635363FFF7A0FFD7
:104F1000FF2852D0092C50D801A151F824F000BF2D
:104F2000974E0108494F0108594F0108614F010888
:104F3000714F0108794F0108894F0108914F01080D
:104F4000A14F0108A94F01086A68102111716A6810
:104F5000012191716B68A0E7A9688E71AB689CE72D
:104F6000EA6810211171EA6801219171EB6894E7F8
:104F700029698E712B691EE06A69102111716A69B5
:104F8000012191716B6916E0A9698E71AB6912E01C
:104F9000EA6910211171EA6901219171EB690AE056
:104FA000296A8E712B6A06E06A6A102111716A6A99
:104FB000012191716B6A002270E7FD2077E700BF45
:104FC000F94C010800012004A47305085274050877
:104FD000AE730508C7740508A8E906081016001086
:104FE00037B5851F0023092D0446019303D9FE2000
:104FF00040B203B030BD41F0BFFA1D4B53F825302D
:105000001B6801931B4B019953F825200123551C64
:1050100003FA05F50D4203D0174840F2C52107E019
:105020000199934013EA010506D0134840F2CB21C1
:10503000124A134B3CF0FCFD41F06EFA41F09CFA31
:1050400010490B5D53B91048104A40F2D321234652
:10505000FEF764FF084840F2D321E9E70D5541F01F
:105060005BFAFFF7FEFEFF2814BF0020FD20BFE71C
:105070005C150010E8150010AE730508897305086B
:10508000A8E9060800012004D17405088174050808
:1050900038B5851F092D0C4602D9FE2040B238BD17
:1050A0000868830703D00B4840F2ED2105E000F0CB
:1050B0004FFB30B1074840F2F321074A074B3CF061
:1050C000B7FD074B626853F825305A632268DA61EE
:1050D000E4E700BFAE73050895730508A8E9060864
:1050E000101600100638092802D9FE2040B2704779
:1050F000034B53F820300122DA710020F6E700BF9D
:105100001016001037B5841F0023092C019303D912
:10511000FE2040B203B030BD41F02EFA104B53F8E0
:1051200024301B6801930F4B019953F8243001225E
:1051300002FA03F50D4205D1019901339A4012EAB2
:10514000010503D041F0E8F9FD20E2E741F0E4F980
:10515000054B53F824304FF400429A602846D8E7B4
:105160005C150010E815001010160010063809280C
:1051700002D9FE2040B27047024B53F82030002085
:10518000D871F7E7101600100638092802D9FE205A
:1051900040B27047024B53F8203000209860F7E788
:1051A000101600100638092801D9FE2007E0B1F5D5
:1051B000803F06D2044B53F820300020196040B2E3
:1051C0007047FF20FBE700BF1016001006380928C3
:1051D00001D9FE2006E03F2906D8044B53F82030C1
:1051E0000020196340B27047FF20FBE71016001043
:1051F0000638092802D9FE2040B27047024B53F806
:10520000203000201960F7E79815001006380928AB
:1052100002D9FE2040B27047034B53F820301B6880
:105220000B700020F6E700BF98150010063809281B
:1052300002D9FE2040B27047034B53F820309B6ADE
:105240000B600020F6E700BF101600100638092892
:1052500002D9FE2040B27047044B53F820305A6BFD
:105260009B6AD31A0B600020F4E700BF10160010F1
:105270000638092810B502D9FE2040B210BD054BF2
:1052800053F8304024B943F8301003EBC0004260BB
:105290000020F2E7D42F0010054B93F812320BB91F
:1052A000032803D003288CBF00230123184670472E
:1052B0005830001070B50446FFF7EEFF08B3134AEC
:1052C0002301D018D35C012B1DD0057B00F108060B
:1052D000CDB9294610223CF01AFD41F0C5F8012352
:1052E00033710B4B53F82430DA6822F00102DA6094
:1052F000084B53F8240002F01CF9074B18552846B8
:1053000002E0FE2000E0FD2040B270BDEC9B0004F6
:10531000809A0004FC7405085030001070B50546F2
:105320000C461646FFF7B8FF70B10B4928010B1861
:105330000A5C012A0AD01A7B42B14CB15C609E60C3
:1053400000F0D6F8002004E0FE2002E0FD2000E09E
:10535000FF2040B270BD00BFEC9B00042DE9F34775
:1053600004460F469046FFF797FF002846D0284B8B
:1053700026019A19995D0129994641D0137B002B8A
:105380003ED0244B9F423DD841F0F6F8224D01908B
:1053900041F06AF855F824300022DA6055F82420EC
:1053A000137803F0FE03137055F8243010229A602E
:1053B000384655F824A041F0C7F855F82420CAF81B
:1053C0001C000121516155F82420516055F824102A
:1053D0008B69002BFCD1B8F1000F02D040F2011311
:1053E00000E001230B6055F824300122DA600198B7
:1053F00009F8062041F090F8002004E0FE2002E0C9
:10540000FC2000E0FF2040B202B0BDE8F08700BF02
:10541000EC9B00047BF0C107809A000473B504463E
:10542000FFF73AFF28B341F0A7F8154B019053F866
:105430002420D16821F00101D16053F82420117893
:1054400001F0FE01117053F8243001225A610D4A17
:1054500001982301D6180025D55441F05DF8737BDF
:10546000083643B1084B185D02F06CF87571284698
:1054700002E0FE2000E0184640B202B070BD00BF5E
:10548000809A0004EC9B00045030001082B0C36886
:105490000193C36823F00103C360019802B0704711
:1054A00030B5002485B0104D605903690293C3687C
:1054B0000393FFF7EBFF6359019001225A61029BAE
:1054C000DA0709D5039BDB0706D5084A02EB8402FD
:1054D00053680BB1906898472B59019ADA600434ED
:1054E000182CE0D105B030BD809A0004EC9B00047C
:1054F00008B50F20FEF754FD0F200449FEF780FD8C
:105500000F20BDE80840FEF73BBD00BFA1540108D5
:10551000074A53789B0708D0064B196841F00D01E4
:1055200019601B681360002000E0FB2040B2704748
:105530001C9B0004000018E00F2811D80B4B00F54D
:10554000804253F82220D2050CD5DA6A012101FAF3
:1055500000F01043D862DA6A054B00201A6002E0BE
:10556000FC2000E0FF2040B2704700BF000018E0C0
:10557000989A00040F2812D80A4B0122D96A824057
:1055800021EA0202DA62DA6A074B1A60074A00234C
:1055900042F8303002EBC0004360184600E0FC20C7
:1055A00040B27047000018E0989A00049C9A0004EA
:1055B00003280FD8094B1A6822F440721A601A683F
:1055C00042EA00221A6000B918601A68044B0020F1
:1055D0001A6000E0FB2040B2704700BF000018E0F6
:1055E0001C9B00040F2810B529D851B30C68C4F3D4
:1055F0000B0313B11448FB2106E04A68C2F30B0207
:1056000032B1114840F20111104A114B3CF010FB2D
:10561000830003F1604303F5C8131C6012C92144E1
:105620001964196841F4807119600A491C6841F8CD
:10563000304001EBC0001B6C4360104602E0FC20D0
:1056400000E0F92040B210BD147505084675050844
:10565000A8E906089C9A000410B540F08DFF154B90
:105660001A7802F0FF041AB140F056FFFA201EE04B
:1056700001221A7040F050FF40F08EFF0E4B1C606C
:10568000DC620E4B1C600E4B1C6023469A0002F13C
:10569000604202F5C812002010601064094A02EB53
:1056A000C30142F833000133102B4860EED140B201
:1056B00010BD00BF6C320010000018E01C9B0004FD
:1056C000989A00049C9A000408B540F065FF0E4AC1
:1056D00000231360D3620D4A13600D4A13609A00D1
:1056E00002F1604202F5C812002010601064094AFD
:1056F00002EBC30142F833000133102B4860EED1B6
:10570000054B187008BD00BF000018E01C9B00048A
:10571000989A00049C9A00046C32001038B50A4C28
:1057200040F02AFF2368DB07054601D540F034FF2F
:10573000236823F001032360044B22681A60284683
:1057400040F0EAFE002038BD000018E01C9B000479
:1057500010B5114B1B6813F008031AD000230E4A32
:105760000121D26A01FA03F414420CD09A0002F12A
:10577000604202F5C812146824F48074A04202D377
:10578000126C904203D30133102BE8D101E008469C
:1057900010BD002010BD00BF000018E010B5044689
:1057A000002838D040F0E8FE1C4B1A78012A03D1BB
:1057B00040F0B2FEFB202FE001221A7040F0ACFE58
:1057C000174B00225A6022781AB15A6842F004023C
:1057D0005A6062781AB15A6842F002025A605A68F6
:1057E000104B1A60104A00231360104A52F833100D
:1057F0006FF35F1142F8331063F30301C9B241F054
:10580000100102F8331002EBC30201330020082B11
:105810005060EAD100E0FA2040B210BD6D320010B5
:1058200090ED00E0649B0004209B0004249B000496
:10583000044B5A6842F001025A605A68024B002039
:105840001A60704790ED00E0649B0004072813D8AD
:105850000B4B98601A6942F001021A611A69094BF0
:1058600003EBC0035A60084B012202FA00F01A68E9
:1058700002431A60002000E0FC2040B2704700BFE5
:1058800090ED00E0249B0004209B0004072814D81E
:105890000B4B98601A6922F001021A611A69094BD0
:1058A00003EBC0035A60084B012202FA00F01A68A9
:1058B00022EA00021A60002000E0FC2040B270479B
:1058C00090ED00E0249B0004209B0004072810B505
:1058D0003CD800293CD00A79131F1B2B02D91E4843
:1058E000D6210AE00B6801324FF0FF3404FA02F2CD
:1058F0001A40934205D01848DC21184A184B3CF056
:1059000097F923F01F03174A43F010030343D360B2
:105910000B794C795B0043EA04638C7943EA0423F6
:105920001361CB791BB1136943F0805313610E4BA4
:105930000C6853F83010640964F35F1143F83010B9
:1059400003EBC00012694260002002E0FC2000E08E
:10595000FA2040B210BD00BF777505085E750508D6
:10596000A8E9060890ED00E0249B0004014B93F8A1
:10597000D8007047509C000410B50468914024EA98
:1059800001040460016893401943016010BD0000E8
:1059900010B504462346044801210822FFF7ECFF16
:1059A000024B1C7010BD00BF000006A26E3200103A
:1059B0000F4B1A68002A06DA1B680E487F2108225E
:1059C000C3F3066310E0110206D51B6809487F2166
:1059D0000822C3F3064307E0120407D51B680548F5
:1059E0007F210822C3F30623FFF7C6BF704700BF1D
:1059F00030020AA2100006A22DE9F047FFF7B6FF19
:105A0000644BDFF8ECA1DFF8EC91DFF8EC81624F3A
:105A1000624E634D04461868C0F34010FFF7B8FFAC
:105A2000DFF8D8C1DFF8D8E15E485F495F4A002C53
:105A300052D05F4BCAF80030C9F80030C8F80030C7
:105A4000CCF800305B4BCEF800305B4B3B605B4BDF
:105A500033605B4B2B6003F590230360594B0B6065
:105A6000594B13601C307F2118223B23FFF784FF22
:105A700056487F2110224223FFF77EFF5348FF2123
:105A800008226323FFF778FF50487F21182235232F
:105A9000FFF772FF4D487F2110223B23FFF76CFF79
:105AA0004A48FF2108223F23FFF766FF47487F212E
:105AB00000220223FFF760FF45487F2110220423C4
:105AC000FFF75AFF42487F2108220323FFF754FFC4
:105AD0003F487F21002251E03E4BCAF80030C9F810
:105AE0000030C8F80030CCF800303B4BCEF8003026
:105AF000A3F588333B60394B3360314B2B60384B17
:105B00000360384B0B60384B136030487F211822FC
:105B10003B23FFF731FF2D487F2110224223FFF75F
:105B20002BFF2A48FF2108225223FFF725FF274891
:105B30007F2118223523FFF71FFF24487F211022E1
:105B40003B23FFF719FF2148FF2108223F23FFF7DE
:105B500013FF1E487F2122460223FFF70DFF1C483A
:105B60007F2110220423FFF707FF19487F21082215
:105B70000323FFF701FF16487F2122460123FFF789
:105B8000FBFEFFF715FF194B1A6842F001021A607D
:105B9000BDE8F087400001A2180006A21C0006A282
:105BA000200006A2240006A2280006A22C0006A2BD
:105BB0005FB20B005F9F06003F8F05001F8A040045
:105BC0000F0A04001F8F09003F9F0A00400006A231
:105BD000440006A27FB20B007F9F06003F8A0400AC
:105BE0001F8A08003F8F09007F9F0A00000006A25D
:105BF000040006A2080006A20C0006A2100006A2DD
:105C0000140006A21D2870B504460D4616460CD891
:105C100059B140F0B1FC064B43F8345003EBC404D7
:105C2000666040F079FC002000E0FE2040B270BDCC
:105C3000743200101D2838B504460D463ED840F099
:105C40009BFC024635B91F4B01211B6801FA04F485
:105C50009C660FE0012D05D11A4B1B6805FA04F470
:105C60009C6612E0022D08D1164B01211B6801FA37
:105C700004F41C67C3F8B04018E0032D08D1114BA1
:105C800001211B6801FA04F41C67C3F8A8400DE069
:105C9000042D08D10B4B01211B6801FA04F41C6789
:105CA000C3F8884002E040F037FC07E0104640F0BF
:105CB00033FC642040F0A0FB002000E0FE2040B256
:105CC00038BD00BF6C9B00041D282DE9F04105463E
:105CD0000C4623D8084600F0CDF8804640F04CFC36
:105CE00040F01AFC0F4E2CB93368403503EB8505A4
:105CF000AC7011E03368AD002B4401270024C3F8D9
:105D000000417D2083F8027140F076FB33681D442A
:105D1000C5F8008185F80371204600E0FE2040B2FE
:105D2000BDE8F0816C9B000470B5174E33680446E3
:105D30000D4643B915491320FEF762F91320FEF70B
:105D40001FF9012333601D2C1BD8D5B140F014FC82
:105D50000F4A002342F8343002EBC402536040F093
:105D6000DBFB29782046FFF765FF69680646204679
:105D7000FFF7AAFF3043C6B2204600F071F8304664
:105D800000E0FE2040B270BD70320010515F01088B
:105D9000743200101D2810B504460BD840F0ECFBFF
:105DA000064B01221B6802FA04F49C6440F0B4FB29
:105DB000002000E0FE2040B210BD00BF6C9B00043C
:105DC0001D2810B504460BD840F0D6FB064B012227
:105DD0001B6802FA04F41C6540F09EFB002000E002
:105DE000FE2040B210BD00BF6C9B00041D2838B5DA
:105DF00004460FD840F0C0FB084B01221B68A240AC
:105E000005469A622046FFF7C5FF284640F084FB0E
:105E1000002000E0FE2040B238BD00BF6C9B0004B3
:105E20001D2838B504460FD840F0A6FB084B0122C8
:105E30001B68A24005461A632046FFF7C1FF2846AB
:105E400040F06AFB002000E0FE2040B238BD00BFF9
:105E50006C9B0004014B1B68186870476C9B000426
:105E6000034B01221B6802FA00F09860704700BFE4
:105E70006C9B000440B13E2808D8C00300F5FA70BE
:105E80004FF47A73B0FBF3F0002356E07D2808D876
:105E900080034FF47A7300F5FA70B0FBF3F001233E
:105EA00045E0FA2808D840034FF47A7300F5FA70F9
:105EB000B0FBF3F002233AE0B0F5FA7F08D8000314
:105EC0004FF47A7300F5FA70B0FBF3F003232EE081
:105ED000B0F57A7F08D8C0024FF47A7300F5FA70F3
:105EE000B0FBF3F0042322E0B0F5FA6F08D880028B
:105EF0004FF47A7300F5FA70B0FBF3F0052316E067
:105F0000B0F57A6F08D840024FF47A7300F5FA7052
:105F1000B0FBF3F006230AE0B0F5FA5F14D80002F4
:105F20004FF47A7300F5FA70B0FBF3F0072340F2F8
:105F3000FF72B0F5006F08BF10461B0303F4E04387
:105F400040F480301843704740F2FF700723F4E7B5
:105F500038B50D4B1B681D68ADB100240123A3406B
:105F60002B420DD0E0B2FFF741FF2046FFF778FF4C
:105F7000064A52F83430E10013B10A445068984799
:105F800001341E2CEAD138BD6C9B00047432001021
:105F9000044B1A68044B92F87510C90701D5013BF0
:105FA000F9D1704738160010EEEE6E00034B1B68F7
:105FB000012283F87420FFF7EBBF00BF38160010F2
:105FC00010B5074C236845F66A029A66FFF7EEFFA4
:105FD000236849F236129A66BDE81040FFF7E6BF23
:105FE00038160010034B1B684FF4B0421A60FFF7DD
:105FF000DDBF00BF3816001070B5124C236841F6A3
:1060000057221A640E460546FFF7C2FF236842F680
:1060100068321A64FFF7BCFF012E0AD004D3022EA7
:106020000BD123681D6408E02368EDB283F840506B
:1060300003E02368EDB283F84150BDE87040FFF7FC
:10604000A7BF00BF3816001008B5FFF7CBFF024B03
:106050001B68586C08BD00BF3816001038B50A4CD4
:10606000236841F685225A640546FFF791FF2368AD
:106070004EF2CF725A64FFF78BFF23685D64BDE870
:106080003840FFF785BF00BF3816001070B5124CBE
:10609000236841F253629A640E460546FFF778FF83
:1060A000236848F618129A64FFF772FF012E0AD08F
:1060B00004D3022E0BD123689D6408E02368EDB25F
:1060C00083F8485003E02368EDB283F84950BDE8F7
:1060D0007040FFF75DBF00BF3816001070B5124C5E
:1060E000236845F64A52DA640E460546FFF750FF2C
:1060F000236849F23F42DA64FFF74AFF012E0AD0D3
:1061000004D3022E0BD12368DD6408E02368EDB2CE
:1061100083F84C5003E02368EDB283F84D50BDE89E
:106120007040FFF735BF00BF3816001038B50C4C73
:106130002368022583F83450FFF738FF23680A22CA
:1061400083F83420FFF732FF4FF47A7040F054F9AF
:10615000236883F83450FFF729FF23685B6B38BD51
:106160003816001038B5124D1820FFF73FFE2B6887
:1061700043F602125C681A60FFF718FFE2070AD5BF
:106180002B68FE225A74FFF711FF0A4B1B6813B1EC
:10619000094A10689847A30705D5084B1B6813B137
:1061A000074A106898471820BDE83840FFF738BE06
:1061B00038160010683300107C3300106C33001068
:1061C00074330010F8B5174C236815461A6842F46A
:1061D00040421A60064601200F4640F00DF9236840
:1061E0005A6812F40042FBD10F4B47EA06261A60A8
:1061F0001E6023689A6045F400421A60C82040F08F
:10620000FBF823685A681204FCD4084ADB68127849
:1062100001350AB1064800E006484543B5FBF3F0F6
:10622000F8BD00BF40160010240202A23C16001068
:1062300080BA8C01002D31012DE9F041134C236807
:1062400090461A6842F440421A6006464FF47A704B
:106250000F4640F0D1F823685D6815F40045FBD186
:106260000B4B47EA06261D601E60236848F4004277
:106270009D604FF47A701A6040F0BEF823685A6847
:106280001204FCD4D868BDE8F08100BF40160010AD
:10629000240202A208B5FFF7A5FE034B1B6818688D
:1062A000C0F3001008BD00BF3816001002292DE908
:1062B000F84380460F4600F28A80FF2800F287806C
:1062C00098B3FFF78FFE444B1B68DE6C012FF4B2CE
:1062D000C6F307252BD0022F57D00027012101FA42
:1062E00007F313EA080F15D033420AD0FE23C7F193
:1062F000080243FA02F2BB4013431C40204600212F
:1063000006E04FF48072BA40324203D11D43284662
:10631000FFF7E4FE0137082FE0D1012040F06CF8D0
:106320006FF001000121FFF7B1FE002050E0384678
:106330003946FFF7ABFE0827C7F10809012303FA26
:1063400009F313EA080F1DD033420AD0FE2303FAE3
:1063500009F23B4113431C4020460021FFF7BEFEDB
:1063600005E04FF4807303FA09F333420AD0FE23A9
:1063700003FA09F93B4149EA03031D40284601217C
:10638000FFF7ACFE013FD7D1CFE701200146FFF771
:106390007DFE0027012101FA07F919EA080F12D042
:1063A00019EA060F0FD14FF48073BB40334204D17A
:1063B00045EA09052846FFF791FE44EA090420460C
:1063C0000021FFF78BFE0137082FE3D1ADE7FF2057
:1063D00040B2BDE8F88300BF381600102DE9F34144
:1063E0000121FF20FFF762FF012000F0A3FB524BC9
:1063F0001C78002C68D121460120FFF7FDFDC82044
:106400003FF0FAFFFFF720FE20F01F00FFF726FE07
:10641000042001216322FFF7D5FEB0F5004F0646A8
:1064200041D9FFF711FE40F01F00FFF717FE0420CF
:1064300001216322FFF7C6FEB0F5004F074632D2B6
:106440001F252B1B012B1BD9FFF7FEFD05EB0408B5
:106450004FEA580820F01F0040EA0800FFF7FEFD51
:10646000042001216322FFF7ADFEB0F5004F04D8F0
:1064700019D007464546304600E044460646E0E768
:10648000C7F50047A6F50046B74205D2FFF7DCFD89
:1064900020F01F00284304E0FFF7D6FD20F01F0086
:1064A0002043FFF7DBFD632204200121FFF78AFE72
:1064B000224BC0F5004002B21B6802F30D0242F409
:1064C00080421A67FFF772FD1C4C01A8FDF7BAFD68
:1064D00023681A68920713D443F602121A60FFF772
:1064E00065FD23684CF608021A60FFF75FFD23681C
:1064F00046F210421A60FFF759FD01203FF0BCFF41
:10650000236843F602121A60FFF750FD23684FF428
:10651000C8421A60FFF74AFD012000F00DFB002180
:10652000FF20FFF7C3FE0198FDF793FD6FF0010018
:1065300002B0BDE8F08100BF7833001038160010BB
:1065400010B5FFF7A7FE1F4B187070B31E4CFFF776
:1065500037FD23684FF4C8421A60FFF727FD236810
:1065600043F602121A60FFF721FD184B1B789B06B9
:1065700011D500200146FFF73FFDC8203FF03CFF4A
:10658000134B1B7813B12368B82201E02368402223
:106590001A67FFF70BFD0F480F4A40F29151FDF7C4
:1065A000BDFC012000F0C8FA05E00A480B4A40F2A1
:1065B0009551FDF7B3FCFF200021BDE81040FFF727
:1065C00075BE00BF7033001038160010400001A2E5
:1065D000A30202A230760508B7750508CE75050836
:1065E0002DE9F0437F4F3B7885B0002B40F0F680DB
:1065F000FFF7CEFCFFF7A4FFFFF7E2FC7A4B7B48E6
:106600001B789C0608D47A4A40F26321FDF786FC89
:10661000784B01221A7004E040F26621764AFDF7B9
:106620007DFC764D2A6892F87530980704D592F86B
:106630003430D90740F1B480536F526B00926B48ED
:106640006F4A40F26F21FDF751FC6E4B1C78002C15
:1066500031D12B6844F202321A602B6840F20116E5
:106660005A689C604FF48072DC601C615C619A61C6
:10667000DE611C625C629A620722DE621C635E63FA
:106680009C63DA63FFF792FC02213046FFF7B4FC0B
:1066900040F60770FFF7E2FC03202146FFF7F6FC07
:1066A0002B688A229C65DC651C665C66DC661C6760
:1066B0009A67FFF77BFC2B68504EDFF8549140F24D
:1066C00001125A63FFF772FC2B684AF2573846F200
:1066D000D274C3F850805C65FFF768FCFFF726FDB5
:1066E0002B68C3F850805C65FFF760FCDFF82481FD
:1066F000FFF778FC2B6893F8753098F80020531E4C
:106700005A425A41404B1A70FFF79EFC40F08000FD
:10671000FFF7A4FCFFF70AFD2B68002483F835403F
:10672000FFF744FC334B187810B3FFF78DFC40F0B3
:106730006000FFF793FC012163220620FFF742FD72
:10674000C0F50040336840F30C0202F3CD021A6733
:10675000FFF72CFC21460620FFF74EFCC8203FF037
:106760004BFE01202146FFF791FCC9F8004017E0DD
:106770000123C9F800300146FFF73EFC98F80030CD
:1067800013B13368B82201E0336840221A67FFF77B
:106790000DFCC8203FF030FE02200021FFF776FC00
:1067A0002B688A229A67FFF701FC2B680722DA63BD
:1067B000FFF7FCFB0023182002A98DF80830039393
:1067C000FFF7B2FA024638B918201049FFF71AFA53
:1067D00010B91820FFF724FB01233B70002005B0FF
:1067E000BDE8F08364330010400001A2A7750508DE
:1067F000DE75050878330010F075050838160010AE
:1068000001760508703300103C1600106561010820
:106810008C0202A2A30202A208B500F05BF8044BAE
:106820001B68C0B203B19847BDE8084000F060B8EB
:106830008033001038B50446C8B10378012B16D850
:106840004068B0F57A7F12D80B4B00251D6000F030
:106850001DF8207800F02CF82378012B09D1074986
:106860001120FDF7CDFB1120FDF78AFB01E0FE2092
:1068700000E0284640B238BD803300101968010896
:1068800008B500F01FF8002008BD000042F21073A8
:1068900058439C22B0FBF2F2034B120442F0120266
:1068A0005A60024ADA607047000009A29A785614CA
:1068B0000128034B0CBF40F2171217229A61704750
:1068C000000009A2014B024A1A617047000009A2A8
:1068D000AB896715054B1B6A9A0705D413F0010FA6
:1068E0000CBF02200120704700207047000009A261
:1068F000014BDB69704700BF000009A210B5094BCE
:10690000094C1A6810B922F0010201E042F00102BC
:106910001A604FF4FA703FF06FFD236843F00103F3
:10692000236010BDA80007A2080007A200231A4692
:1069300001219940014203F1010318BF0132202BCC
:10694000F6D110467047000010B5514C2068FFF793
:10695000EDFF2368002800F09A80DA070CD54D4A35
:106960001168A2F54032A2F5007201F00F01106823
:1069700020F00F00014311609C070CD5454A1168B7
:10698000A2F54032A2F5007201F0F001106820F08B
:10699000F0000143116058070CD53E4A1168A2F57A
:1069A0004032A2F5007201F47061106820F470604A
:1069B0000143116019070DD5364A1168A2F540321E
:1069C000A2F5FE72C1F30531106820F47C7040EA34
:1069D00001111160DA060CD52E4A1168A2F5403279
:1069E000A2F5F872C1F38541106820F03F00014321
:1069F00011609C060DD5274A1168A2F54032A2F518
:106A0000F272C1F30361106820F4F04040EAC12142
:106A1000116058060CD5204A1168A2F54032A2F543
:106A20001C7201F00F01106820F00F00014311608B
:106A300019060CD5184A1168A2F54032A2F51C724D
:106A400001F0F001106820F0F00001431160DA0558
:106A50000DD5114A1168A2F54032A2F51472C1F3A6
:106A60000321106820F4F07040EA411111609B0589
:106A70000DD5094B1A68A3F54033A3F51473C2F37F
:106A80000232196821F01C0141EA82021A6010BD2D
:106A900008030AA200030AA204030AA208B5FFF72A
:106AA00053FF064B1A6842F001021A60D3F8D02057
:106AB00042F00102C3F8D02008BD00BF040007A2C5
:106AC00010B550B9184B1A6822F001021A604FF441
:106AD0007A70BDE810403FF08FBC012823D1134CE1
:106AE000FFF7DCFF236843F002032360C8203FF078
:106AF00083FC236843F004032360C8203FF07CFC40
:106B0000236843F001032360C8203FF075FC23682D
:106B100023F001032360236823F004032360236828
:106B200023F00203236010BD000007A2C40007A2E7
:106B3000FFF7B4BFFFF7E2BEFFF7C2BF0D4B9842AD
:106B400007B510D189B90C4B1B680BB108469847A3
:106B500000238DF80030684601230193FFF76AFE99
:106B6000FFF78EFEFEE7022000E0002003B05DF894
:106B700004FB00BF26061620843300100D4B0022B4
:106B80005A625A635A645A651A621A631A641A6519
:106B90009A6A22F00F029A629A6B22F00F029A63AD
:106BA0009A6C22F00F029A649A6D22F00F029A6595
:106BB000704700BF001000E010B5124C2368DA07E0
:106BC0001FD4FFF7DBFFE368DB0305D4E36843F082
:106BD000807343F48033E3600B4B0C4A1968090F50
:106BE00011605A6A42F01F025A625A6B42F01F0249
:106BF0005A635A6C42F01F025A645A6D42F01F02E7
:106C00005A6510BDF0ED00E0001000E08833001080
:106C100070B5114C2468E4071AD4104C2468A042C3
:106C200016D211EA020613D10501AC0805F1604540
:106C300005F5815530462960094941F82420094A63
:106C400052F8241001F00F010B4342F8243070BDBC
:106C50004FF0FF3070BD00BFF0ED00E08833001052
:106C6000241000E0281000E080B584B000AF034697
:106C7000B9607A60FB73FB7B102B35D12A4B1B6804
:106C8000072B24D8284B1A68284913465B00134465
:106C90009B000B44BA681A60234B1A6823491346B9
:106CA0005B0013449B000B447A685A601E4B1A68C1
:106CB0001E4913465B0013449B000B44083301221A
:106CC0001A70194B1B685A1C174B1A6028E0184899
:106CD00040F27B11174AFDF7F1F817484FF4BE71E7
:106CE000164A174B3AF0A4FFFA7B164913465B008D
:106CF00013449B000B44BA681A60FA7B114913468F
:106D00005B0013449B000B447A685A60FA7B0D4980
:106D100013465B0013449B000B44083301221A7096
:106D20001037BD4680BD00BF9C33001000340010FA
:106D300073770508D86505081866050848770508BB
:106D4000606605081435001080B584B000AF0346B6
:106D5000B9607A60FB73FB7B102B35D12A4B1B6823
:106D6000072B24D8284B1A68284913465B00134484
:106D70009B000B44BA681A60234B1A6823491346D8
:106D80005B0013449B000B447A685A601E4B1A68E0
:106D90001E4913465B0013449B000B440833012239
:106DA0001A70194B1B685A1C174B1A6028E01848B8
:106DB0004FF4C771174AFDF781F8174840F28F1159
:106DC000164A174B3AF034FFFA7B164913465B001C
:106DD00013449B000B44BA681A60FA7B11491346AE
:106DE0005B0013449B000B447A685A60FA7B0D49A0
:106DF00013465B0013449B000B44083301221A70B6
:106E00001037BD4680BD00BF98330010A03300107E
:106E10001E7705086466050818660508F4760508F7
:106E2000606605086034001080B586B000AF7860F9
:106E30000023FB753FF0A0FBF8600023FB7587E0A3
:106E4000534B5A68FB7D22FA03F303F00103002B36
:106E50007BD14F4B5A68FB7D012101FA03F31A43A2
:106E60004B4B5A604A4B1B7A0133DAB2484B1A72C9
:106E7000FA7D13469B0013445B00134403F1280280
:106E8000434B13440133184600210B223AF03FFFD5
:106E900078683BF034F838613B690A2B01D90A2342
:106EA0003B61FA7D13469B0013445B00134403F1DE
:106EB0002802374B13440133184679683A693AF08F
:106EC00002FF3B69002B0CD1324840F2F311324AE9
:106ED000FCF7F4FF31484FF4FA71314A314B3AF084
:106EE000A7FE0023BB752BE0FA7DB97D2848134629
:106EF0009B0013445B00134403440B4428335B782A
:106F0000202B0DD9FA7DB97D214813469B001344EF
:106F10005B00134403440B4428335B787D2B0CD96E
:106F20001C484FF4FC711C4AFCF7C8FF1B4840F298
:106F3000F9111B4A1B4B3AF07BFEBB7D0133BB753D
:106F4000BA7D3B699A42CFD306E0FB7D0133FB75E6
:106F5000FB7D112B7FF674AFF8683FF0DDFAFB7D07
:106F6000112B0CD90B4840F202210F4AFCF7A6FF67
:106F70000A4840F203210A4A0A4B3AF059FEFB7DC7
:106F80000E33FB75FB7D18461837BD4680BD00BF2C
:106F9000C8350010D3760508A466050818660508EC
:106FA000B276050860660508D066050880B584B02D
:106FB00000AF0346FB71FB791F2B02D8FB790D2B29
:106FC00006D8214840F21121204AFCF777FF38E02B
:106FD000FB790E3BFB713FF0CFFAF8601C4B5A680F
:106FE000FB7922FA03F303F00103002B20D0184BA6
:106FF0001B7A013BDAB2164B1A72154B5A68FB79B1
:10700000012101FA03F3DB431A40114B5A60FA796C
:1070100013469B0013445B00134403F128020C4BFE
:1070200013440133184600210B223AF070FE05E0AC
:10703000054840F21D21074AFCF758FFF8683FF069
:107040006BFA1037BD4680BD8D760508FC660508D5
:10705000C83500102C67050890B587B002AF02460E
:107060000B46FA71BB71BB791F2B06D9464840F21B
:107070002721464AFCF722FF83E03FF07DFAF860C3
:10708000FB79012B39D1BB79414A1A44527A01323A
:10709000D2B23F490B445A723D4B1A68BB79012169
:1070A00001FA03F31A433A4B1A60BB79384A134486
:1070B0005B7AFF2B62D1BB790D2B07D8BB793248A5
:1070C00040F23621334AFCF711FF57E0BC79BB7917
:1070D000A3F10E0213469B0013445B00134403F11B
:1070E00028022B4B13440133009327484FF40E71B1
:1070F000294A2346FCF7FAFE40E0BB79244A1344B0
:107100005B7A002B19D0BB79214A1A44527A013A92
:10711000D2B21F490B445A72BB791D4A13445B7AA1
:10712000002B2BD11A4B1A68BB79012101FA03F30A
:10713000DB431A40164B1A6020E0BB790D2B07D8B1
:10714000BB7911484FF41271144AFCF7CFFE15E0D9
:10715000BC79BB79A3F10E0213469B0013445B007C
:10716000134403F128020A4B1344013300930648E9
:1071700040F24A210A4A2346FCF7B8FEF8683FF07D
:10718000CBF91437BD4690BD71760508FC6605083D
:10719000C8350010606705089C670508DC670508AE
:1071A0002468050880B582B000AF3FF0E5F938608B
:1071B000084B1B68002B02D10023FB7101E0012367
:1071C000FB7138683FF0A8F9FB7918460837BD46CF
:1071D00080BD00BFC835001080B582B000AF034647
:1071E000FB71FB791F2B07D90B484FF419710B4A20
:1071F000FCF764FE00230BE0094B1A68FB7922FAC6
:1072000003F303F00103002B01D0012300E000236E
:1072100018460837BD4680BD4C760508FC66050853
:10722000C835001080B400AF034B1B681846BD463C
:107230005DF8047B704700BFC835001080B483B090
:1072400000AF1C4B03221A601B4B03221A601B4B1E
:1072500040F227121A601A4B1B687B607B681B0A7E
:1072600003F00103002B05D0164B10221A60164BB9
:1072700010221A607B685B0A03F00103002B05D023
:10728000104B20221A60104B20221A607B689B0A48
:1072900003F00103002B05D00A4B40221A600A4B71
:1072A00040221A60094B0F221A600C37BD465DF868
:1072B000047B704700E00FE004E00FE0400010E0C6
:1072C000400001A258000DA234000DA2A4000CA29F
:1072D00080B500AF064B1B68002B04D0044B1B6825
:1072E0009847034600E000235BB2184680BD00BF0C
:1072F000749B000480B500AF064B1B68002B04D0C4
:10730000044B1B689847034600E000235BB2184615
:1073100080BD00BF709B000480B582B000AF786074
:107320007B680D2B73D801A252F823F06573010816
:10733000717301087D730108897301089573010851
:10734000A1730108AD730108B9730108C573010881
:10735000D1730108DD730108E9730108F5730108B1
:10736000017401087B682C4819463AF0D9FC4DE0BD
:107370007B682A4819463AF0D3FC47E07B682848E6
:1073800019463AF0CDFC41E07B68264819463AF0B0
:10739000C7FC3BE07B68244819463AF0C1FC35E065
:1073A0007B68224819463AF0BBFC2FE07B682048F6
:1073B00019463AF0B5FC29E07B681E4819463AF0B8
:1073C000AFFC23E07B681C4819463AF0A9FC1DE09D
:1073D0007B681A4819463AF0A3FC17E07B68184806
:1073E00019463AF09DFC11E07B68164819463AF0C0
:1073F00097FC0BE07B68144819463AF091FC05E0D5
:107400007B68124819463AF08BFC00BF00BF00BFF2
:107410000837BD4680BD00BF6C6805088468050854
:10742000A0680508BC680508DC680508F868050858
:1074300010690508286905084069050858690508A4
:107440007069050890690508B0690508CC690508E8
:1074500080B582B000AF1B4B1B683B601A483AF006
:107460005FFC0023FB7125E0FB79012202FA03F3A4
:107470001A463B681340002B19D0FB790D2B04D81A
:10748000FB791846FFF748FF11E0F979FB79A3F182
:107490000E0213469B0013445B00134403F12802C1
:1074A000084B1344013309481A463AF039FCFB797A
:1074B0000133FB71FB791F2BD6D93B68184608377F
:1074C000BD4680BDC8350010E8690508186A050882
:1074D00080B582B000AF0346FB71FB79FF2B10D162
:1074E000104B1B68002B0CD00E4B1B6803F00103E4
:1074F000002B02D00C483AF013FC0A4B00221A6011
:107500000CE0FB79002B09D1FB79012202FA03F38D
:107510001A46044B1B681A43024B1A600837BD46D3
:1075200080BD00BF8C330010306A05080020FDF7D5
:1075300075BFFFF779BC08B501460120FFF78CFD48
:10754000002008BD08B501460020FFF785FD00209A
:1075500008BD000038B50446FFF764FE0123A340D0
:1075600010EA030507D00748074A47212346FCF7DE
:10757000A5FCFF2003E02046FFF718FD284640B297
:1075800038BD00BF9E770508C5770508FFF74ABEDE
:10759000FFF708BEFFF720BE10B5044600200A49D9
:1075A0000246FDF7BBFE094900208C4238BF214648
:1075B0000246FDF7D3FE28B10548064A7221FCF7C2
:1075C0007DFCFF2040B210BD2D7501087BF0C10786
:1075D0003F780508FC770508012808B505D1BFF3F9
:1075E0004F8F30BFBFF36F8F03E0022806D13EF00C
:1075F000C3FE0020BDE80840FDF710BF08BD000035
:1076000008B5FFF71BFE002000F03CF90020014602
:1076100000F0FCF80120002100F0F8F80020FDF750
:1076200049FE28B10348044AA321FCF747FCFF2088
:1076300040B208BD607805081E78050870B504469C
:10764000002857D16C4B11BB1B685D0740F1D380FC
:1076500030203EF089FE694B694C1A6822F4803272
:107660001A601D23236001203EF0C6FE1F23236005
:1076700001203EF0C1FE1E23236001203EF0BCFE2F
:107680001A23236001203EF0B7FE12232FE01A6870
:10769000540700F1B0801B68580700F1AC8030201F
:1076A0003EF062FE554B564C1A6842F480321A6026
:1076B0001623236001203EF09FFE1E23236001203D
:1076C0003EF09AFE0E23236001203EF095FE0C232F
:1076D000236001203EF090FE1C23236001203EF039
:1076E0008BFE1D23236001203EF086FE0D232360C8
:1076F000012079E001287ED13F4B002930D11B6861
:10770000190778D530203EF02FFE3C4B3D4D1A68CE
:107710003D4E22F080721A601D232B6020463EF001
:107720006BFE1F232B6020463EF066FE336843F459
:107730008033336020463EF05FFE336843F0010340
:10774000336020463EF058FE1E232B6020463EF05C
:1077500053FE1A232B6020463EF04EFE122341E0DA
:107760001A68120747D41B681B0744D430203EF028
:10777000FBFD224B234D1A68234E42F080721A60A3
:1077800012232B6020463EF037FE16232B60204646
:107790003EF032FE1E232B6020463EF02DFE336865
:1077A00023F48033336020463EF026FE336823F016
:1077B0000103336020463EF01FFE0E232B6020465F
:1077C0003EF01AFE0C232B6020463EF015FE1C23D3
:1077D0002B6020463EF010FE1D232B6020463EF01D
:1077E0000BFE0D232B6020463EF006FE3020BDE848
:1077F00070403EF0B9BE70BD08080FA2AC030FA2E6
:1078000008020FA20C020FA260020FA238B580B9C5
:10781000144C29B9256895B1013D25603DB904E0B6
:1078200023680133236013B10121FFF707FF2068AC
:1078300038BD012814D10B4C49B965681DB9FFF753
:10784000FDFE284638BD013D65603DB904E0626833
:107850000132626012B10146FFF7F0FE606838BD88
:10786000002038BD2C9E0004044B054A40F0807077
:107870001860106800221A60704700BF30030FA222
:1078800034030FA2F0B50546ADF6B41D30203EF02E
:107890006BFD20B159485A4AA521FCF70FFB594B03
:1078A000594C1B68594B23600A203EF0A5FD584BEC
:1078B00023600A203EF0A0FD564B574831221A6043
:1078C000564A5A60564A9A60564ADA60564A1A61CF
:1078D000564A0023136053609360A2F5517244210D
:1078E000136001601268524942F001020A60514A75
:1078F0004FF4803616601360006808604FF4000192
:10790000116013604C4B032119604FF41B7143F855
:107910009C1C4A4B4A4916460B601F4621462DB116
:10792000484B494A1A60494B236012E0284657F8F1
:107930002020474C40F08073013043F48033B0F591
:107940001B7F23606260F2D13E4B424A1A603F4B7C
:107950000B60414B1B689B05FBD500242046FFF7BD
:1079600083FF4DF824000134B4F51B7FF6D168463F
:1079700032494FF41B623AF097F920B11F48374A59
:10798000EC21FCF79BFA81233360354B1B221A60F4
:10799000182243F8382CA3F56023A3F58273314AEB
:1079A0001B68116813F0200F2F4B06D101F47F41A3
:1079B00011601A6802F47F4205E041F00C01116089
:1079C0001A6842F01D021A60284B1A6842F480328D
:1079D0001A601A6842F080721A60A3F56B738022F5
:1079E0001A6030203EF0C0FD28B10448204A4FF410
:1079F0008271FCF763FA0DF6B41DF0BD7D820508B7
:107A0000288205081C0009A200030FA21000160B13
:107A10000000160B40030FA214000FA23200170043
:107A20003300580034006F0035007D0054030FA26E
:107A300038030FA260030FA2C0030FA278780508D5
:107A400020030FA204030FA20100160B0200160B65
:107A500030030FA2493C160BE4090FA24682050829
:107A600044010FA204010FA208010FA2AC030FA250
:107A70005E82050830B5184B93E8070087B003AC69
:107A800084E80700002300224DF803205800111855
:107A9000012505FA01F1C1F3140139B191000F2557
:107AA0008D405DF8031029434DF803100132082A78
:107AB000EDD104330C2BE6D1084B1868002300EB02
:107AC00083025DF82310116654F823101165013309
:107AD000032BF4D107B030BD506A050844160010DE
